:100000000C9425030C944D030C944D030C944D0358
:100010000C944D030C944D030C944D030C944D0320
:100020000C944D030C944D030C944D030C944D0310
:100030000C944D030C944D030C944D030C944D0300
:100040000C940B1A0C944D030C9468180C943F04F8
:100050000C944D030C944D030C944D030C944D03E0
:100060000C9468140C944D03084AD73B3BCE016EA8
:1000700084BCBFFDC12F3D6C74319ABD56833DDAFF
:100080003D00C77F11BED9E4BB4C3E916BAAAABE0E
:10009000000000803F00010204081020408001029F
:1000A00004081020010204081020000000002500B0
:1000B00028002B00040404040404040402020202C5
:1000C000020203030303030300000000003E5B4F32
:1000D0005B3E3E6B4F6B3E1C3E7C3E1C183C7E3CA8
:1000E000181C577D571C1C5E7F5E1C00183C1800B6
:1000F000FFE7C3E7FF0018241800FFE7DBE7FF3046
:10010000483A060E2629792926407F050507407FB3
:1001100005253F5A3CE73C5A7F3E1C1C08081C1C26
:100120003E7F14227F22145F5F005F5F06097F011C
:100130007F006689956A606060606094A2FFA29407
:1001400008047E040810207E201008082A1C0808D5
:100150001C2A08081E101010100C1E0C1E0C303823
:100160003E3830060E3E0E06000000000000005F24
:1001700000000007000700147F147F14242A7F2A40
:100180001223130864623649562050000807030002
:10019000001C2241000041221C002A1C7F1C2A084E
:1001A000083E0808008070300008080808080000B1
:1001B00060600020100804023E5149453E00427F25
:1001C000400072494949462141494D331814127F74
:1001D0001027454545393C4A494931412111090714
:1001E0003649494936464949291E00001400000095
:1001F0004034000000081422411414141414004167
:1002000022140802015909063E415D594E7C121123
:10021000127C7F494949363E414141227F4141415B
:100220003E7F494949417F090909013E41415173D6
:100230007F0808087F00417F41002040413F017F47
:10024000081422417F404040407F021C027F7F040F
:1002500008107F3E4141413E7F090909063E415158
:10026000215E7F09192946264949493203017F0148
:10027000033F4040403F1F2040201F3F4038403F49
:10028000631408146303047804036159494D43005F
:100290007F4141410204081020004141417F040296
:1002A000010204404040404000030708002054542D
:1002B00078407F284444383844444428384444280B
:1002C0007F385454541800087E090218A4A49C785E
:1002D0007F0804047800447D40002040403D007FBA
:1002E0001028440000417F40007C047804787C089A
:1002F0000404783844444438FC182424181824246E
:1003000018FC7C08040408485454542404043F4452
:10031000243C4040207C1C2040201C3C4030403C81
:1003200044281028444C9090907C4464544C4400E1
:100330000836410000007700000041360800020145
:100340000204023C2623263C1EA1A161123A404031
:10035000207A3854545559215555794122545478AE
:1003600042215554784020545579400C1E52721247
:1003700039555555593954545459395554545800D0
:1003800000457C410002457D420001457C407D12D4
:1003900011127DF0282528F07C5455450020545436
:1003A0007C547C0A097F4932494949323A444444E1
:1003B0003A324A4848303A4141217A3A424020781C
:1003C000009DA0A07D3D4242423D3D4040403D3C1D
:1003D00024FF2424487E4943662B2FFC2F2BFF0942
:1003E00029F620C0887E0903205454794100004436
:1003F0007D413048484A32384040227A007A0A0A21
:10040000727D0D19317D2629292F28262929292693
:1004100030484D4020380808080808080808382FD8
:1004200010C8ACBA2F102834FA00007B0000081462
:100430002A142222142A14085500550055AA55AA38
:1004400055AAFF55FF55FF000000FF00101010FFD8
:1004500000141414FF001010FF00FF1010F010F033
:10046000141414FC001414F700FF0000FF00FF1424
:1004700014F404FC141417101F10101F101F141470
:10048000141F00101010F0000000001F10101010BA
:100490001F10101010F010000000FF1010101010AE
:1004A00010101010FF10000000FF140000FF00FFEC
:1004B00000001F10170000FC04F414141710171488
:1004C00014F404F40000FF00F714141414141414AA
:1004D000F700F7141414171410101F101F1414141D
:1004E000F4141010F010F000001F101F0000001F87
:1004F00014000000FC140000F010F01010FF10FFBA
:10050000141414FF141010101F00000000F010FF4E
:10051000FFFFFFFFF0F0F0F0F0FFFFFF0000000032
:1005200000FFFF0F0F0F0F0F3844443844FC4A4AB6
:100530004A347E02020606027E027E02635549416B
:10054000633844443C04407E201E2006027E0202A2
:1005500099A5E7A5991C2A492A1C4C7201724C30B6
:100560004A4D4D303048784830BC625A463D3E498D
:100570004949007E0101017E2A2A2A2A2A44445F31
:10058000444440514A444040444A51400000FF0125
:1005900003E080FF000008086B6B08361236243633
:1005A000060F090F06000018180000001010003098
:1005B00040FF0101001F01011E00191D1712003C20
:1005C0003C3C3C000000000000010203040506085A
:1005D000090A0B0D0E1012131517191B1D202225C9
:1005E000272A2D3033373A3E4145494D52565B5FFD
:1005F00064696E74797F858B91979DA4ABB2B9C005
:10060000C7CFD6DEE6EEF7FF000102030507090BB0
:100610000E1114181D22282E363D464F59646F7C4A
:100620008997A6B6C7D9EBFF000000002400270079
:100630002A00000000080002010000030407000077
:100640000000000000003C1B552011241FBECFEF0E
:10065000D8E0DEBFCDBF23E0A4E7B1E001C01D922A
:10066000A53EB207E1F711E0A0E0B1E0E6EDFBE462
:1006700002C005900D92A437B107D9F713E0C4E288
:10068000D3E004C02197FE010E94A920C332D10704
:10069000C9F70E94D51D0C94DE250C940000CF9262
:1006A000DF92EF92FF920F931F93CF93DF936C0132
:1006B0007A018B01C0E0D0E0CE15DF0589F0D801CA
:1006C0006D918D01D601ED91FC910190F081E02DAD
:1006D000C6010995892B11F47E0102C02196ECCF49
:1006E000C701DF91CF911F910F91FF90EF90DF90A5
:1006F000CF90089585EE91E00E94551621E0892B58
:1007000009F420E0822F08952091E4019091E30103
:10071000213208F04AC08091C0018111FCCF32E043
:100720003093C00131E03093BF013FEF3093BE0101
:100730001092BD012093BC01A3ECB1E04CE951E063
:10074000FA013E2F341B321718F43D913193F9CF43
:1007500010929B0120919B01990F922B90939B01EA
:1007600090919A01913061F410929A0190919B01BD
:100770009093BB009091BC0093FDF8CF95EC01C025
:1007800095EE9093BC009091C0019230E1F390916E
:10079000BE019F3F79F08091BE01803241F080918F
:1007A000BE01803331F084E005C081E003C082E007
:1007B00001C083E01092C2011092E4011092C101C5
:1007C0000895CF93C62F9091F30221E02093C101A9
:1007D0009093E3011092C2011092E401682F82E825
:1007E00092E00E9412146C2F82E892E00E94121490
:1007F000CF910C9484039091C0019111FCCF91E0B2
:100800009093C0019093BF012FEF2093BE011092EF
:10081000BD01260F2093BC0190939B0190919B01F9
:10082000880F892B80939B0180919A01813061F41C
:1008300010929A0180919B018093BB008091BC0033
:1008400083FDF8CF85EC01C085EE8093BC008091DC
:10085000C0018130E1F38091BD01861710F46091F1
:10086000BD01ACE9B1E02AE731E0F9018E2F821B2E
:10087000861718F48D918193F9CF862F08951F92D2
:100880000F920FB60F9211242F933F934F935F93C4
:100890006F937F938F939F93AF93BF93EF93FF9348
:1008A00085EE91E00E949A18FF91EF91BF91AF9170
:1008B0009F918F917F916F915F914F913F912F9178
:1008C0000F900FBE0F901F90189570E09C01232F82
:1008D0003327269526952695269FA001279F500D04
:1008E000369F500D112420E030E0352F330F330FA9
:1008F000330FAC014F715527469FF001479FF00D14
:10090000569FF00D1124EF2FFF27E20FF31F9C01DC
:10091000207E3770A5E036952795AA95E1F7269FAA
:10092000A001279F500D369F500D1124252F3327EE
:10093000C90125E0880F991F2A95E1F78E0F9F1FA7
:1009400008952F923F924F925F926F927F928F9273
:100950009F92AF92BF92CF92DF92EF92FF920F934E
:100960001F93CF93DF93CDB7DEB7C055D1090FB634
:10097000F894DEBF0FBECDBF8C01DC015E968C917A
:10098000FF24F394F092C1018093E3011092C2011D
:100990001092E40162E382E892E00E9412140E9445
:1009A0008403F801868DF092C1018093E3011092D7
:1009B000C2011092E40166E00E94FB0310927501EF
:1009C000809374017801F8E1EF0EF11C6701C60114
:1009D0008E199F093091740120917501321741F0F1
:1009E00082E892E00E94C613D6018D936D01EFCF8D
:1009F000069721F0F801128681E083870E94840324
:100A0000D8015B962C905B975A963C905A975D96CE
:100A1000CC905D97C98A5C96DC905C97D98E59968C
:100A20006C91599770E0762F662758968C91682BB9
:100A3000072E000C880B990B0E943D2269837A8354
:100A40008B839C839801215C3F4F46E06DE1C80198
:100A500080960E94EC1AD801DF968C9190E0982F36
:100A60008827F801E05CFF4F2081822B3196A0801F
:100A7000B12CBA2CAA2431962081A22A319660800A
:100A8000712C762C662431962081622AF80164A5A7
:100A900075A5680F791F072E000C880B990B0E9413
:100AA0003D2220E030E046E651E40E949321D80147
:100AB000D2962D913D914D915C91D5970E94212325
:100AC000F80120A131A142A153A10E9421236D87E9
:100AD0007E878F87988BD8019E966D917C919F978A
:100AE0006A0D7B1D072E000C880B990B0E943D227E
:100AF00020E030E046E651E40E949321F80126A967
:100B000037A940AD51AD0E942123D80194962D9173
:100B10003D914D915C9197970E9421234B015C017F
:100B2000F80160A971A9660D771D072E000C880BCE
:100B3000990B0E943D2220E030E046E651E40E94FD
:100B40009321D801DA962D913D914D915C91DD97DD
:100B50000E942123F80120A531A542A553A50E949A
:100B600021232B013C010E94AC196B017C01F8018F
:100B7000E157FF4F608371838283938398012D56E1
:100B80003F4F3E8B2D8BA80145575F4F5E834D83B2
:100B9000FA0180819181A281B381A7019601281B6E
:100BA000390B4A0B5B0BCA01B9010E943B2220E0C2
:100BB00034E244E759E40E9493219B01AC0160E0D8
:100BC00070E080E89FE30E949321AD89BE896D9318
:100BD0007D938D939C931397ED81FE81C082D1828A
:100BE000E282F3822BED3FE049E450E4C301B2011D
:100BF0000E94212320E030E044E353E40E9493214B
:100C00006D837E838F8398872BED3FE049E450E42A
:100C1000C501B4010E94212320E030E044E353E405
:100C20000E94932169877A878B879C872BED3FE011
:100C300049E450E46D857E858F8598890E94212343
:100C400020E030E044E353E40E9493216D877E87E7
:100C50008F87988BB80161597F4FDB01CD90DD9074
:100C6000ED90FC901397CDA2DEA2EFA2F8A6CD9056
:100C7000DD90ED90FC901397C9A6DAA6EBA6FCA632
:100C8000CD90DD90ED90FC90C9A2DAA2EBA2FCA27F
:100C90007801B3E7EB0EF11CD7012D913D914D91F9
:100CA0005C912DA73EA74FA758ABDB012D913D913D
:100CB0004D915C91139729AB3AAB4BAB5CAB18965B
:100CC0002D913D914D915C9113972DAB3EAB4FAB68
:100CD00058AFFB0140815181628173816801FBE75C
:100CE000CF0ED11CF6014081518162817381F701E1
:100CF0004081518162817381408151816281738120
:100D000040815181628173814D915D916D917C91A2
:100D10001397208131814281538129AF3AAF4BAF84
:100D20005CAFF601208131814281538121962CAF45
:100D30003DAF4EAF5FAF21974D915D916D917C912D
:100D400013974D915D916D917C9113972D913D91EC
:100D50004D915C9125962CAF3DAF4EAF5FAF25977F
:100D600080819181A281B38129968CAF9DAFAEAF76
:100D7000BFAF299720813181428153812D962CAFBD
:100D80003DAF4EAF5FAF2D972081318142815381BE
:100D900061962CAF3DAF4EAF5FAF619720E030E082
:100DA000A90169817A818B819C810E948E2188238F
:100DB00009F47CC2632D70E07229072E000C880BA9
:100DC000990B0E943D224B015C0120E030E0A9011B
:100DD0000E948E21882309F469C2C98C6C2D70E0B1
:100DE000D9887D29072E000C880B990B0E943D2283
:100DF0006B017C0120E030E0A9010E948E21882354
:100E000009F454C229813A814B815C81CA01B9013C
:100E10000E9421232B013C01A5019401C501B401CD
:100E20000E9421239B01AC01C301B2010E94B020AA
:100E30002B013C01A7019601C701B6010E942123A5
:100E40009B01AC01C301B2010E94B0200E94551A5F
:100E50002B013C019B01AC0169817A818B819C81D2
:100E60000E942123698F7A8F8B8F9C8FA30192011F
:100E7000C501B4010E9421236D8F7E8F8F8F98A3AF
:100E8000A3019201C701B6010E9421234B015C011D
:100E900021962CAD3DAD4EAD5FAD219769AD7AADDC
:100EA0008BAD9CAD0E9421236B017C012DA93EA935
:100EB0004FA958AD69A97AA98BA99CA90E942123A1
:100EC0009B01AC01C701B6010E94AF202B013C0180
:100ED0002DA53EA54FA558A969A17AA18BA19CA1DA
:100EE0000E9421236B017C0129962CAD3DAD4EADB6
:100EF0005FAD299725966CAD7DAD8EAD9FAD2597E5
:100F00000E9421239B01AC01C701B6010E94B020C1
:100F100069A37AA38BA39CA329A53AA54BA55CA59D
:100F20006DA17EA18FA198A50E94212320E030E031
:100F300040E05FE30E94AF206B017C0161962CAD25
:100F40003DAD4EAD5FAD61972D966CAD7DAD8EAD77
:100F50009FAD2D970E9421239B01AC01C701B601D3
:100F60000E94B0206B017C019B01AC016D8D7E8DD8
:100F70008F8D98A10E94212369837A838B839C8320
:100F800029A13AA14BA15CA1C501B4010E94212372
:100F90009B01AC0169817A818B819C810E94AF2089
:100FA00020E030E0A9010E94B02069837A838B831E
:100FB0009C83A3019201C501B4010E9421234B012E
:100FC0005C01A7019601698D7A8D8B8D9C8D0E94A5
:100FD00021239B01AC01C501B4010E94AF2020E098
:100FE00030E0A9010E94B020698B7A8B8B8B9C8B9F
:100FF00029A13AA14BA15CA1698D7A8D8B8D9C8D25
:101000000E9421236B017C01A30192016D8D7E8DD5
:101010008F8D98A10E9421239B01AC01C701B601CD
:101020000E94AF2020E030E0A9010E94B0202B01F7
:101030003C0120E030E0A90169817A818B819C81AB
:101040000E948E21882309F431C120E030E0A901FB
:1010500069897A898B899C890E948E21882309F469
:1010600025C120E030E0A901C301B2010E948E2118
:10107000882309F41BC1980125593F4F3E8F2D8FBE
:10108000D9016D917D918D919C9120E030E0A90175
:101090000E941423F801E158FF4F1F0118160CF0AD
:1010A000AEC0AD8DBE8DCD90DD90ED90FC90C98E23
:1010B000DA8EEB8EFC8EED89FE89208131814281B2
:1010C000538160E070E080E89FE30E9493216B0110
:1010D0007C01D1018D909D90AD90BC9029813A8189
:1010E0004B815C81698D7A8D8B8D9C8D0E94212333
:1010F000A70196010E9421239B01AC01C501B40107
:101100000E94B020F1016083718382839383AD8D4F
:10111000BE8D6D917D918D919C913496FE8BED8B62
:1011200080809180A280B38029893A894B895C892B
:101130000E942123A70196010E9421239B01AC015B
:10114000C501B4010E94B020AD89BE896D937D9325
:101150008D939C931397ED8DFE8D608171818281BB
:101160009381980129573F4F3A8F298FD9018D904C
:101170009D90AD90BC90A30192010E942123A701F4
:1011800096010E9421239B01AC01C501B4010E947C
:10119000B020E98DFA8D6083718382839383D101BE
:1011A0002D913D914D915C916D857E858F859889BE
:1011B0000E94B0206D877E878F87988BED89FE898E
:1011C000208131814281538169857A858B859C8517
:1011D0000E94B02069877A878B879C87A98DBA8DFA
:1011E0002D913D914D915C916D817E818F8198858E
:1011F0000E94B0206D837E838F83988710C01082F9
:10120000118212821382F801ED57FF4F1082118272
:101210001282138234961082118212821382780114
:10122000F7E6EF0EF11CD7016D917D918D919C91A8
:1012300029813A814B815C810E9421239B01AC0171
:101240006D857E858F8598890E94B0206D877E8709
:101250008F87988BF70160817181828193812989C1
:101260003A894B895C890E9421239B01AC016985E5
:101270007A858B859C850E94B02069877A878B87C9
:101280009C87D7016D917D918D919C91A3019201D5
:101290000E9421239B01AC016D817E818F81988505
:1012A0000E94B0206D837E838F839887F801ED566E
:1012B000FF4F208131814281538160E070E080E8FE
:1012C0009FE30E94932120E030E040E05FE30E9432
:1012D00021236B017C019B01AC016D857E858F858F
:1012E00098890E9421236D877E878F87988BA7011D
:1012F000960169857A858B859C850E942123698367
:101300007A838B839C83A70196016D817E818F8177
:1013100098850E942123698B7A8B8B8B9C8B18017B
:10132000BFE62B0E311CD101CD90DD90ED90FC90ED
:10133000CD8ADE8AEF8AF88EF801ED58FF4FFE83E2
:10134000ED83C080D180E280F380C98EDA8EEB8E8F
:10135000FC8E3496FA87E987C080D180E280F380E2
:10136000CD8EDE8EEF8EF8A23496FAA3E9A34080EC
:10137000518062807380D101CD90DD90ED90FC9022
:10138000698D7A8D8B8D9C8D90582D853E854F85EE
:1013900058890E9421234B015C0129813A814B81AC
:1013A0005C816D8D7E8D8F8D98A10E9421239B0184
:1013B000AC01C501B4010E94AF204B015C01298939
:1013C0003A894B895C89C301B2010E9421239B01A8
:1013D000AC01C501B4010E94AF209B01AC01C70163
:1013E000B6010E94B020F1016083718382839383F0
:1013F000A9A1BAA14D905D906D907C90ED81FE8188
:10140000C080D180E280F3802D853E854F8558894C
:101410006D897E898F89988D0E9421234B015C0103
:1014200029893A894B895C896D8D7E8D8F8D98A134
:101430000E9421239B01AC01C501B4010E94B02090
:101440004B015C0129813A814B815C81C301B2016E
:101450000E9421239B01AC01C501B4010E94AF2071
:101460009B01AC01C701B6010E94B020AD81BE81D5
:101470006D937D938D939C931397E9A1FAA140807E
:10148000518062807380A985BA85CD90DD90ED9002
:10149000FC9029813A814B815C816D897E898F899D
:1014A000988D0E9421234B015C0129893A894B893F
:1014B0005C89698D7A8D8B8D9C8D0E9421239B0187
:1014C000AC01C501B4010E94AF204B015C012D8528
:1014D0003E854F855889C301B2010E9421239B019B
:1014E000AC01C501B4010E94B0209B01AC01C70151
:1014F000B6010E94B020E985FA85608371838283FA
:101500009383A9A1BAA1CD90DD90ED90FC9029899B
:101510003A894B895C896D897E898F89988D0E9473
:1015200021234B015C0129813A814B815C81698DCA
:101530007A8D8B8D9C8D0E9421239B01AC01C5016E
:10154000B4010E94B0204B015C012D853E854F8582
:1015500058896D8D7E8D8F8D98A10E9421239B01CE
:10156000AC01C501B4010E94AF209B01AC01C701D1
:10157000B6010E94B020E9A1FAA160837183828341
:101580009383D1016D917D918D919C9113972D91B4
:101590003D914D915C91ED81FE8180809180A28092
:1015A000B3804080518062807380A985BA85CD90D8
:1015B000DD90ED90FC901397CD86DE86EF86F88A5D
:1015C000CD90DD90ED90FC90C982DA82EB82FC82B6
:1015D000A9A1BAA1CD90DD90ED90FC901397C98A96
:1015E000DA8AEB8AFC8ACD90DD90ED90FC90CD8A72
:1015F000DE8AEF8AF88E0E9421236B017C01A30111
:101600009201C501B4010E9421239B01AC01C701D5
:10161000B6010E94B0206B017C0129813A814B8187
:101620005C816D857E858F8598890E9421239B0131
:10163000AC01C701B6010E94B0206B017C012D896D
:101640003E894F89588D69897A898B899C890E9446
:1016500021239B01AC01C701B6010E94B0200E946A
:10166000551A6B017C01F101608171818281938146
:10167000A70196010E942123D1016D937D938D9343
:101680009C931397ED81FE816081718182819381AA
:10169000A70196010E942123AD81BE816D937D93A8
:1016A0008D939C931397E985FA856081718182817E
:1016B0009381A70196010E942123A985BA856D9384
:1016C0007D938D939C931397E9A1FAA16081718119
:1016D00082819381A70196010E942123A9A1BAA129
:1016E0006D937D938D939C931397F101408051806E
:1016F00062807380AD81BE818D909D90AD90BC90D5
:10170000A985BA85CD90DD90ED90FC90CD82DE82EA
:10171000EF82F886A9A1BAA1CD90DD90ED90FC9062
:10172000C986DA86EB86FC86A7019601C501B4015D
:101730000E9421236B017C012D813E814F815885C0
:10174000C301B2010E9421239B01AC01C701B60174
:101750000E94AF209B01AC010E94B0206D877E8764
:101760008F87988BA5019401C301B2010E942123A8
:101770006B017C0129853A854B855C856D817E8175
:101780008F8198850E9421239B01AC01C701B6017E
:101790000E94B0209B01AC010E94B02069837A8333
:1017A0008B839C83A3019201C301B2010E94212378
:1017B0006B017C01A5019401C501B4010E942123A4
:1017C0009B01AC01C701B6010E94AF206B017C01F7
:1017D0002D813E814F815885CA01B9010E94212384
:1017E0009B01AC01C701B6010E94AF206B017C01D7
:1017F00029853A854B855C85CA01B9010E94212360
:101800009B01AC01C701B6010E94B020698B7A8BA5
:101810008B8B9C8BA3019201C301B2010E94B0206B
:101820006B017C01A5019401C501B4010E94B020A7
:101830006D8B7E8B8F8B988FA3019201C701B601B0
:101840000E9421232B013C01A50194016D897E8911
:101850008F89988D0E9421239B01AC01C301B201A5
:101860000E94B02020E030E040E85FE30E94AF201B
:101870002B013C012D813E814F8158856D897E89E8
:101880008F89988D0E9421234B015C0129853A851F
:101890004B855C85C701B6010E9421239B01AC01E9
:1018A000C501B4010E94AF20A30192010E942F2123
:1018B0007801B9E9EB0EF11C20E030E044E353E499
:1018C0000E9421232BED3FE049E450E40E94932144
:1018D000F701608371838283938329893A894B89D5
:1018E0005C89CA01B9010E9421236B017C01298115
:1018F0003A814B815C81CA01B9010E942123A70171
:1019000096010E94B0200E9494239B01AC016D853A
:101910007E858F8598890E9493210E945F215801BE
:10192000FDE9AF0EB11C20E030E044E353E40E9437
:1019300021232BED3FE049E450E40E949321D5019F
:101940006D937D938D939C9313972D853E854F8545
:101950005889CA01B9010E942123A70196010E945A
:10196000B0200E9494239B01AC0169817A818B8114
:101970009C810E9493210E945F210F551F4F20E000
:1019800030E044E353E40E9421232BED3FE049E49F
:1019900050E40E949321F8016083718382839383D2
:1019A000C05BDF4F0FB6F894DEBF0FBECDBFDF9137
:1019B000CF911F910F91FF90EF90DF90CF90BF904C
:1019C000AF909F908F907F906F905F904F903F90DF
:1019D0002F9008950F931F93CF93DF93EC0181E035
:1019E00090E0998F888F8E01065E1F4F40E050E097
:1019F00060E070E0C8010E94961540E050E061E0B0
:101A000070E0C8010E94961540E050E062E070E08E
:101A1000C8010E9496158E899F8901962C893D895F
:101A20008217930718F49F8B8E8B02C01F8A1E8A21
:101A30000E891F89000F111F8A899B89080F191FA2
:101A400060E8F801808191810E9465049F878E87FC
:101A500060E4F801808191810E946504998B888BF4
:101A6000CE01DF91CF911F910F910C94C4154F922D
:101A70005F926F927F928F929F92AF92BF92CF921E
:101A8000DF92EF92FF920F931F93CF93DF93CDB727
:101A9000DEB729970FB6F894DEBF0FBECDBF8C011D
:101AA000DC011A968D919C911B97DC01ED91FC91C4
:101AB0000088F189E02D60E070E00995F8018285E9
:101AC0009385DC01ED91FC91D8011E962D913C91FE
:101AD0001F9790964D915C9191975E966D917C9138
:101AE0005F970480F581E02D0995F801E28CF38C75
:101AF000F801A28DB38DE114F10421F1F801828582
:101B00009385FC0120813181F901C480D580EA16DA
:101B1000FB0631F4D8011E962D913C911F9703C00E
:101B2000F80120893189D70112964D915C91139764
:101B30006D917C91F6010995D7011496ED90FC907A
:101B40001597D6CF268D378D8D919C91119728179B
:101B5000390771F420A131A112968D919C911397B0
:101B60002817390729F481E086A3C8010E94C4150B
:101B7000D8011C968D919C911D97FC01EF55FF4F4C
:101B8000408051806280738034976081718182814E
:101B900093815A96AD90BC905B97F501C280D3803B
:101BA000E080F18058968D909C9059979401225036
:101BB00031092230310500F5C301B2010E9405222E
:101BC0006A3071055CF081E090E0D80159969C93F1
:101BD0008E935897BFEFEB1AFB0A39C0673F7F4FD0
:101BE0007CF5F801118E108E1E141F040CF046C0F7
:101BF000F1E0EF1AF1087DC0E2E08E16910400F5E5
:101C00000E940522683071055CF083E090E0D80105
:101C100059969C938E935897BFEFCB1ADB0A44C01A
:101C2000693F7F4F6CF482E090E0F801918F808FE4
:101C30001C141D040CF047C0F1E0CF1AD10859C0A4
:101C4000F1E08F16910489F4EFEFEE1AFE0AD80145
:101C50001A96ED91FC911B9780859185E816F906FF
:101C60000CF447C0E12CF12C44C022E08216910410
:101C700084F48928F1F51E141F043CF0D8011A964B
:101C8000ED91FC911B97E084F184B1E0EB1AF1082F
:101C900030C082E08816910499F0A3E08A1691047E
:101CA00041F5EFEFCE1ADE0AD8011A96ED91FC91BC
:101CB0001B9782859385C816D9060CF0EBC019C016
:101CC0001C141D043CF0D8011A96ED91FC911B9751
:101CD000C284D384B1E0CB1AD1080BC0F501808156
:101CE00091818E159F0549F0D5011496AD90BC9059
:101CF0001597A114B10491F7D0C0828193818C15FE
:101D00009D0591F7F801828D938D009759F0FC01A4
:101D100024813581D8015B963C932E935A970E947B
:101D20008224F0CF158E148EC8010E94EA0CD801CF
:101D30001A960D911C911B977801BAE1EB0EF11CDC
:101D4000F80182A193A1892B09F4D0C00E94AC199B
:101D5000D80198968D909D90AD90BC909B97DC019A
:101D6000CB0188199909AA09BB09C297A105B10538
:101D700068F3F894F801868D978D9A83898302A081
:101D8000F3A1E02D6F012FEFC21AD20A808189875B
:101D9000D8015A969C915A979C96ED91FC919D97EB
:101DA0009E968C91992309F430C09081982B988746
:101DB0009081809589238F838F818C8388E08B83AA
:101DC00058856F8149853B812C8189819A81D60113
:101DD000508347FD252F3A952083262F39F0441F45
:101DE00000C000006083000000C0F2CF38E04D91D9
:101DF00060830000019761F7D7015396FC93EE933F
:101E0000529749873B832C833AC09081982B9887BF
:101E10009081809589238F838F818E8388E08D8345
:101E200058856F8149853D812E8189819A81D601AE
:101E3000508347FD252F00C000C0208300C000C094
:101E400000C000C000C060830000262F3A9541F01A
:101E5000441F000000C000C000C000C000C0E8CFA8
:101E600038E04D9100C0608300C0019709F7D701A9
:101E70005396FC93EE93529749873D832E839A8322
:101E8000898378940E94AC19F80160A771A782A792
:101E900093A72CC0C12CD12C2CCFA601B701C8010F
:101EA0004A960E949615F80186A181111BC0F8017F
:101EB000848D958D009709F43ACFDC011696ED914B
:101EC000FC911797D8015D96FC93EE935C97309741
:101ED00019F01582148203C0F801138E128E0E942D
:101EE000822425CFD80196961C9221CF29960FB631
:101EF000F894DEBF0FBECDBFDF91CF911F910F9140
:101F0000FF90EF90DF90CF90BF90AF909F908F9019
:101F10007F906F905F904F90089508952F923F9219
:101F20004F925F926F927F928F929F92AF92BF92E9
:101F3000CF92DF92EF92FF920F931F93CF93DF9395
:101F4000CDB7DEB76B970FB6F894DEBF0FBECDBF2F
:101F50004C015A8349831F830E83FD82EC82CB821E
:101F6000DC0158964D915C9159974115510509F046
:101F7000A5C018968D919C911997681779070CF058
:101F80005AC11A968D919C911B97E981FA81E817A5
:101F9000F9070CF050C1D12CCB013B81F6E03F9FFB
:101FA000800D911D1124181619060CF044C1C601AC
:101FB00033E0880F991F3A95E1F749815A81840FE0
:101FC000951F181619060CF036C157968C91811181
:101FD00003C0203B08F02F5F55E0259F900111249E
:101FE0007E876D875B01212CC901861B970B998722
:101FF0008887A981BA811896BB87AA87B5E02B1676
:1020000041F0E885F985EA0DFB1DE853FF4F349058
:1020100001C0312C69807A80230130FE12C0D401C6
:10202000ED91FC91BB81B13031F40480F581E02D5C
:102030002E813F8118C00684F785E02DEE80FF8059
:102040001CC0EC81FD812E813F81E217F307E1F096
:10205000D401ED91FC91BB81B13051F40480F58144
:10206000E02D2C813D81A301B501C40109950CC06F
:102070000684F785E02DEC80FD8086019601A201A3
:102080006D857E85C40109953694EFEF6E1A7E0A40
:102090004C0C5D1C2A853B856216730609F0BDCF8A
:1020A00023943FEFA31AB30A4D855E854C0D5D1D49
:1020B0005E874D8756E02512A1CFBDC0FA01349648
:1020C0003491329785919491231BA7E02A9F800D2C
:1020D000911D1124FA01259134913A8B298BFC0131
:1020E00025903490FC013296349138873196449192
:1020F0004C873196E491FC013596A49131968491F8
:102100005B81523050F06A2E0A2E000C7708E82FBF
:10211000082E000CFF0BFB87EA87FB81CF2ED12C0A
:102120006C9C90016D9C300D7C9C300D1124A9019C
:10213000460F571F588B4F871C82A12CEA2FAA0FDE
:10214000FF0B3B016E0E7F1E5885650F711DDB0175
:10215000AE0FBF1FBF8BAE8BE981FA81E80FF11D77
:1021600087FDFA95F98FE88F9C85A91608F063C062
:102170008A2D90E04A855B85480F591F4C9D900140
:102180004D9D300D5C9D300D1124A981BA81A20FA7
:10219000B31FBE87AD877B8E6A8E4F845888BC8103
:1021A000B619BB8BE88DF98DE80FF91FFD8BEC8B11
:1021B0008B89FA8D8F0F2A8D3B8D4E895F8924176D
:1021C000350799F1877041F4C1010196E989FA89CF
:1021D000E20DF31DB4901C01B7FE1EC0D401ED91B9
:1021E000FC91BB81B13061F40480F581E02D2E813A
:1021F0003F814C895D896A8D7B8DC40109950CC036
:102200000684F785E02DEE80FF80860196014D85DE
:102210005E85B201C4010995BB0CEA8DFB8D319638
:10222000FB8FEA8F4C0C5D1CC3CF5C818885580FF7
:102230005C83A39499CF6B960FB6F894DEBF0FBE64
:10224000CDBFDF91CF911F910F91FF90EF90DF9065
:10225000CF90BF90AF909F908F907F906F905F9046
:102260004F903F902F900895AF92BF92CF92EF92F0
:10227000FF920F931F93CF93DF93EC01262F888D4E
:10228000998D009709F042C06A3069F42C898E85D7
:102290009F8538E0239F800D911D11249F878E8795
:1022A0001D861C86ACC06D3009F4A9C08E898823B8
:1022B000C1F03C898C859D8546E0349F800D911D41
:1022C000112448855985841795075CF01D861C8666
:1022D0008E859F85E8E03E9F800D911D11249F878C
:1022E0008E87EA88FB88088919894E855F856C8509
:1022F0007D85CC88CE010E948E0F2C898C859D8592
:10230000F6E02F9F800D911D112441C06A3079F4B1
:102310001D861C862C89FC013696E4918E859F854E
:102320002E9F800D911D11249F878E8768C06D3070
:1023300009F465C0AC014C5F5F4FFA01349163173B
:1023400008F45DC03196E491E61708F458C0FA012C
:102350004491362F341BFC013296A590B490F7E0DF
:102360003F9FA00CB11C1124F50132963491319697
:10237000E491332311F0E1110DC0F5013496E4919D
:102380002C898C859D85E29F800D911D11249D8750
:102390008C8735C0F501359644915E89552311F13E
:1023A0006C89E32FF0E0E40FF11D47FDFA956E9F75
:1023B000D0016F9FB00D11244C855D854A0F5B1FC6
:1023C000E885F9854E175F076CF01D861C86FC01B9
:1023D0003696E4918E859F856E9F800D911D112408
:1023E0009F878E87EA88FB88088919894E855F85D3
:1023F0006C857D85CC88CE010E948E0FBECF81E09A
:1024000090E0DF91CF911F910F91FF90EF90CF90CF
:10241000BF90AF900895EF92FF920F931F93DC014E
:10242000ED91FC9111971A960D911C911B9718969E
:102430002D913C9119970684F785E02D7B0140E0B2
:1024400050E060E070E009951F910F91FF90EF90D0
:1024500008956F927F928F929F92AF92BF92CF9288
:10246000DF92EF92FF920F931F93CF93DF936C0154
:102470005A014801EB013B01620E731EC615D705D8
:1024800074F4D601ED91FC910084F185E02D870173
:102490009401A501BE01C60109952196EFCFDF91F8
:1024A000CF911F910F91FF90EF90DF90CF90BF9051
:1024B000AF909F908F907F906F900895EF92FF92D2
:1024C0000F931F93DC01ED91FC91260F371F2150D4
:1024D00031090680F781E02D78018A0109951F9165
:1024E0000F91FF90EF900895EF92FF920F931F933B
:1024F0007801DC01ED91FC91240F351F8901015019
:1025000011090680F781E02D9B0109951F910F911C
:10251000FF90EF9008956F927F928F929F92AF926B
:10252000BF92CF92DF92EF92FF920F931F93CF93C0
:10253000DF93EC014B015A0169013801E881F9810F
:102540000284F385E02D87010995E881F981A501D1
:10255000460D571D415051090284F385E02D960127
:10256000B401CE010995E881F9810084F185E02D5F
:102570009301A501B401CE010995E881F981C80C48
:10258000D91CB601615071090084F185E02D9301D9
:10259000A501CE010995DF91CF911F910F91FF9079
:1025A000EF90DF90CF90BF90AF909F908F907F90F3
:1025B0006F9008952F923F924F925F926F927F9209
:1025C0008F929F92AF92BF92CF92DF92EF92FF9243
:1025D0000F931F93CF93DF9300D01F92CDB7DEB739
:1025E0004C017B836A836A01590117019801241BFE
:1025F000350B37FF03C0319521953109C5014A815B
:102600005B81841B950B97FF03C091958195910980
:1026100051E059838217930714F019820BC09A2D49
:102620008B2D5801092F182F9A818B81DB82CA824A
:10263000C92ED82E8A819B81A816B9065CF49C2DE0
:102640008D2D6801092F182F9A818B81BB82AA8258
:10265000A92EB82E2501AA81BB814A1A5B0A38012E
:102660006C187D0877FE03C0719461947108720143
:1026700057FE03C0BFEFEB1AFB0AF594E794C016B0
:10268000D1061CF00FEF1FEF1FC001E010E01CC0CF
:10269000D401ED91FC91B9810480F581E02D910187
:1026A000BB23C1F04A815B81B601C4010995E618DC
:1026B000F708F7FE04C0C00ED11EE40CF51CEA8139
:1026C000FB813196FB83EA834A815B81A416B506C0
:1026D000FCF604C0A6016A817B81E7CF0F900F90C2
:1026E0000F90DF91CF911F910F91FF90EF90DF90AE
:1026F000CF90BF90AF909F908F907F906F905F90A2
:102700004F903F902F90089585ED8093BC0080916D
:10271000BC0084FDFCCF1092C00108954091B70326
:10272000262F30E0240F311D21323105DCF42091B9
:10273000C0012430C9F4FC0180E090E0861758F411
:102740003091B7032191DC01AB56BC4FA30FB11DF3
:102750002C930196F3CF8091B703680F6093B70372
:1027600080E0089581E0089582E008950895E09161
:10277000750180917401E81730F4F0E0E658FE4FDF
:10278000808190E008958FEF9FEF089590917501FB
:1027900080917401981750F4E92FF0E0E658FE4F4D
:1027A000208130E09F5F9093750102C02FEF3FEFD3
:1027B000C90108958091740190E020917501821BF8
:1027C00091090895CF92DF92EF92FF920F931F939A
:1027D000CF93DF937C01262F972F8A018091C1012F
:1027E000882391F0C62FD72F6E01C40ED51ECC15AD
:1027F000DD0571F06991D701ED91FC910190F081B7
:10280000E02DC7010995F3CF642F822F0E948E130C
:10281000C801DF91CF911F910F91FF90EF90DF9052
:10282000CF900895CF93DF931F92CDB7DEB7698322
:102830002091C1012223D1F02091E401203240F007
:1028400021E030E0FC013383228380E090E015C07A
:102850008091C201E82FF0E0ED53FE4F9981908303
:102860008F5F8093C2018093E40105C061E0CE01D7
:1028700001960E948E1381E090E00F90DF91CF913E
:102880000895FC01EF2FFF27E695E695E695E85FB2
:10289000F94F2491FC0135E0F695E7953A95E1F77B
:1028A000EF73FF27E853FA4F64918F719927FC016A
:1028B000E85FF94FE491862F90E0A0E0B0E0BA2FF6
:1028C000A92F982F8827A22BBC01CD016E2B08952C
:1028D0001F920F920FB60F9211242F933F934F9395
:1028E0005F936F937F938F939F93AF93BF93EF9378
:1028F000FF938091B900887F803609F49CC068F509
:10290000883209F45BC090F4803109F454C038F483
:10291000882309F4F6C0883009F44DC0F6C0883128
:1029200009F44CC0803209F45DC0EFC0803409F472
:1029300068C048F4803309F455C0883309F0E5C015
:102940008093BE01D8C0803509F44FC0883509F4A2
:102950005DC0883409F0D9C0D6C0883909F4C7C031
:10296000A8F4883709F467C038F4883609F463C0DE
:10297000803709F460C0C9C0883809F4B8C080390C
:1029800009F45FC0803809F0C0C05BC0803B09F427
:1029900086C038F4803A09F466C0883A09F47FC0EA
:1029A000B4C0803C09F4A7C0883C09F4A4C0883BAB
:1029B00009F48AC0AAC080919B0110C09091BD010A
:1029C0008091BC01981770F5E091BD0181E08E0FF8
:1029D0008093BD01F0E0E456FE4F80818093BB0000
:1029E00085EC86C08093BE018EC0E091BD0181E080
:1029F0008E0F8093BD018091BB00F0E0E456FE4F46
:102A000080839091BD018091BC016EC0E091BD01B9
:102A100081E08E0F8093BD018091BB00F0E0E45611
:102A2000FE4F80838091BF0181116DC081E0809352
:102A30009A0184EA61C083E08093C0011092DB03B5
:102A4000CFCF8091DB03803208F051C0E091DB03EF
:102A500081E08E0F8093DB038091BB00F0E0E554B2
:102A6000FC4F8083BDCF85EC8093BC001092C001E9
:102A70008091DB03803230F4E091DB03F0E0E55439
:102A8000FC4F10826091DB0370E0E091B903F0919C
:102A9000BA038BEB93E009951092DB0336C084E018
:102AA0008093C0011092B8031092B703E091B50370
:102AB000F091B60309958091B703811105C081E0BB
:102AC0008093B70310929503E091B80381E08E0FD5
:102AD0008093B803F0E0EB56FC4F80818093BB00FD
:102AE0009091B8038091B703981708F479CF85E8DF
:102AF0008093BC000AC085EC8093BC001092C0019A
:102B000004C01092BE010E948413FF91EF91BF9107
:102B1000AF919F918F917F916F915F914F913F9175
:102B20002F910F900FBE0F901F901895EF92FF926C
:102B30000F931F93CF93DF93EC017B018A0188E011
:102B400090E00E94ED23FC01F182E0821383028376
:102B50001582148217821682A881B981109729F4F0
:102B6000998388839B838A8308C0B583A48317963F
:102B70009C938E93169799838883DF91CF911F91B1
:102B80000F91FF90EF9008950F931F93CF93DF93D2
:102B900000D000D0CDB7DEB78C01D8011A96ED91E8
:102BA000FC911B9720853185032E000C440B550B9F
:102BB000211531054105510571F029833A834B8375
:102BC0005C830E946D2529813A814B815C810E9442
:102BD0007B259B01AC01F801378F268F0284F3859A
:102BE000E02D22853385032E000C440B550B211557
:102BF00031054105510571F029833A834B835C838C
:102C00000E946D2529813A814B815C810E947B2540
:102C10009B01AC01C901D80191963C932E939097EA
:102C20005A96ED91FC915B973097A1F040815181CC
:102C3000D8015E962D913C915F974217530731F46E
:102C4000228133812817390709F4A7CF0480F58141
:102C5000E02DEACF0F900F900F900F90DF91CF9162
:102C60001F910F910895FC01918D828D981761F04D
:102C7000828DDF01A80FB11D5D968C91928D9F5FB3
:102C80009F73928F90E008958FEF9FEF0895FC015E
:102C9000918D828D981731F0828DE80FF11D858D11
:102CA00090E008958FEF9FEF0895FC01918D228DA4
:102CB000892F90E0805C9F4F821B91098F73992729
:102CC000089580E090E0892B29F00E947A03811119
:102CD0000C94000008958F929F92AF92BF92CF9272
:102CE000DF92EF92FF920F931F93CF93DF93FC013C
:102CF0004A01AA24BB24B82DC32ED42EE52EFF24CE
:102D0000AC2D922F8781882361F0889E4001112489
:102D1000B92DC89E60011124AD2D289FE00111241A
:102D20009D2FD584C285E084F184DC1208C09B010C
:102D3000220F331F620F731F6E0D7F1D16C0660FAB
:102D4000771F660F771F6E0D7F1D052F1127222716
:102D50003327EB01CD0DD11D882329F0089F900169
:102D60001124232F01C0202F28838285EB01C80F57
:102D7000D11DB8838385EB01C80FD11DA88384853D
:102D8000FB01E80FF11D9083DF91CF911F910F910F
:102D9000FF90EF90DF90CF90BF90AF909F908F907B
:102DA00008950E941A258F929F92AF92BF92CF9260
:102DB000DF92EF92FF920F931F93CF93DF938C01DB
:102DC000CB01F80122AD222329F086A897A8A0AC58
:102DD000B1AC04C00E9441144B015C016801FAE1EE
:102DE000CF0ED11CF801E48CF58CC0E0D0E0CE15FC
:102DF000DF0571F0F801848D958DC817D90730F47F
:102E0000A5019401BE01C6010E946B162196EFCF69
:102E1000DF91CF911F910F91FF90EF90DF90CF90B6
:102E2000BF90AF909F908F9008954F925F926F9256
:102E30007F928F929F92AF92BF92CF92DF92EF924A
:102E4000FF920F931F93CF93DF938C01EB017A01D5
:102E5000590177FD2CC157FD2AC1DC0118968D91CF
:102E60009C911997681779070CF021C11A968D91DA
:102E70009C911B97481759070CF019C155968C91D6
:102E80005597823071F08330E1F0813011F514965E
:102E90008D919C9115970197841B950B7B01EC01FB
:102EA00018C0F8018481958101979C01261B370B7E
:102EB000E901868197810197DC01A41BB50B7D0197
:102EC00008C0F801868197810197861B970BEA015C
:102ED0007C01D801D496ED91FC91D597309739F0CB
:102EE000B701CE010995EC01C12CD12CB2C0F8017B
:102EF00047A5F42FF3707F2ED801D2966C90D2970D
:102F0000662009F464C0D0964C90842C912CCE019C
:102F1000B4010E9495206B01F80151A8252D30E0E5
:102F2000C701B9010E949520FB01C89CC001C99C42
:102F3000900DD89C900D1124C81BD90B629FC00125
:102F4000639F900D729F900D1124E81AF90A45FFB6
:102F500007C0862D90E001979C012C193D0969015D
:102F600044FF07C0D801D396EC91F0E03197E61BFF
:102F7000F70B46FD08C0262D30E09E2F8F2FF6015F
:102F8000C92ED82E05C0D801D3966C90262D30E0DE
:102F900047FF09C0C0FE07C083E07826E095F095A2
:102FA000BFEFCB1ADB0A2C9DC0012D9D900D3C9DDF
:102FB000900D1124E80FF91F549C200111244E9EFE
:102FC00060014F9ED00C5E9ED00C112402C0C12C1B
:102FD000D12C9E01C70171FE09C0F80160A970E003
:102FE00061507109DB01AC1BBD0B9D0170FE06C079
:102FF000F80181A990E001978E199F09D80142FD3F
:1030000009C0D096EC91F0E0682F592FC901262F06
:10301000352F03C0D196EC91F0E043FF11C020FFA3
:103020000FC080959095E9012196CE9F9001CF9F8A
:10303000300DDE9F300D1124EC01C20FD31F09C0EB
:10304000E29FE001E39FD00DF29FD00D1124C80F45
:10305000D91FF80182AD882329F026A937A940ADF0
:1030600051AD05C0C5010E9441149B01AC01C601D0
:103070008C0F9D1FD8015C966D917C915D97861792
:103080009707A8F4BC01C8014A96DF91CF911F9120
:103090000F91FF90EF90DF90CF90BF90AF909F90F7
:1030A0008F907F906F905F904F900C946B16DF9194
:1030B000CF911F910F91FF90EF90DF90CF90BF9035
:1030C000AF909F908F907F906F905F904F900895FA
:1030D0001F920F920FB60F9211242F938F939F93ED
:1030E000EF93FF93E091F501F091F6018081E0917B
:1030F000FB01F091FC0182FD12C090818091FE01E4
:103100008F5F8F732091FF01821751F0E091FE01D4
:10311000F0E0EB51FE4F958F8093FE0101C080815E
:10312000FF91EF919F918F912F910F900FBE0F9074
:103130001F901895FC01848DDF01A80FB11DA35AC3
:10314000BF4F2C91848D90E001968F739927848FC7
:10315000A689B7892C93A089B1898C9180648C93BE
:10316000938D848D981306C00288F389E02D8081A9
:103170008F7D80830895EF92FF920F931F93CF93DB
:10318000DF93EC0181E0888F9B8D8C8D981305C0B7
:10319000E889F989808185FD24C0F62E0B8D10E029
:1031A0000F5F1F4F0F731127E02E8C8DE8120CC09C
:1031B0000FB607FCFACFE889F989808185FFF5CF42
:1031C000CE010E949A18F1CF8B8DFE01E80FF11D00
:1031D000E35AFF4FF0820B8FEA89FB89808180627E
:1031E00007C0EE89FF896083E889F989808180645E
:1031F000808381E090E0DF91CF911F910F91FF904C
:10320000EF900895CF93DF93EC01888D8823C9F068
:10321000EA89FB89808185FD05C0A889B9898C91DF
:1032200086FD0FC00FB607FCF5CF808185FFF2CF7A
:10323000A889B9898C9185FFEDCFCE010E949A189B
:10324000E7CFDF91CF91089590E0FC01EE5CF94F5C
:103250003491FC01EA56FF4F2491FC01EC54FF4FDE
:10326000E491EE2309F43BC0332339F1333091F07C
:1032700038F43130A9F0323001F584B58F7D12C0B9
:10328000373091F03830A1F03430B9F480918000BB
:103290008F7D03C0809180008F77809380000DC068
:1032A00084B58F7784BD09C08091B0008F7703C04B
:1032B0008091B0008F7D8093B000F0E0EE0FFF1F93
:1032C000E655FF4FA591B4918FB7F894EC91611139
:1032D00003C020952E2301C02E2B2C938FBF089561
:1032E000CF93DF9390E0FC01EA56FF4F2491FC015D
:1032F000EC54FF4F8491882361F190E0880F991F6F
:10330000FC01E85DF94FC591D491FC01E655FF4FF2
:10331000A591B491611109C09FB7F8948881209557
:1033200082238883EC912E230BC0623061F49FB717
:10333000F8943881822F809583238883EC912E2BFB
:103340002C939FBF06C08FB7F894E8812E2B28835B
:103350008FBFDF91CF9108953FB7F8948091DD033F
:103360009091DE03A091DF03B091E00326B5A89B06
:1033700005C02F3F19F00196A11DB11D3FBFBA2F07
:10338000A92F982F8827820F911DA11DB11DBC0167
:10339000CD0142E0660F771F881F991F4A95D1F72C
:1033A00008958F929F92AF92BF92CF92DF92EF9249
:1033B000FF926B017C010E94AC194B015C01C114AE
:1033C000D104E104F104F1F00E94AC19DC01CB015D
:1033D00088199909AA09BB09883E9340A105B1053E
:1033E00070F321E0C21AD108E108F10888EE880ED6
:1033F00083E0981EA11CB11CC114D104E104F104A6
:1034000019F7DDCFFF90EF90DF90CF90BF90AF9096
:103410009F908F9008951F920F920FB60F921124D4
:103420002F933F938F939F93AF93BF938091760198
:1034300090917701A0917801B09179013091DC03EE
:1034400023E0230F2D3720F40196A11DB11D05C0E7
:1034500026E8230F0296A11DB11D2093DC03809363
:10346000760190937701A0937801B09379018091D0
:10347000DD039091DE03A091DF03B091E00301969C
:10348000A11DB11D8093DD039093DE03A093DF03A4
:10349000B093E003BF91AF919F918F913F912F9196
:1034A0000F900FBE0F901F9018954F925F926F92E2
:1034B0007F928F929F92AF92BF92CF92DF92EF92C4
:1034C000FF92CF93DF93CDB7DEB760970FB6F89436
:1034D000DEBF0FBECDBF6B017C0180E090E0A0ECB1
:1034E000BFE389839A83AB83BC8320E030E040E074
:1034F0005FE3C701B6010E94212369877A878B8722
:103500009C87CD82DE82EF82F8868D819E81AF819D
:10351000B8858D879E87AF87B88B4D855E856F8513
:103520007889759567955795479586E89AE5A7E355
:10353000BFE5841B950BA60BB70B8D879E87AF87C6
:10354000B88B8D859E85AF85B8898D839E83AF832B
:10355000B887CD80DE80EF80F88489809A80AB8048
:10356000BC8069857A858B859C852D813E814F81C4
:1035700058854D805E806F8078840E942123A3014E
:1035800092010E9421239B01AC01C501B4010E945C
:10359000AF209B01AC01C701B6010E9421236D83BE
:1035A0007E838F8398876D817E818F8198856096D9
:1035B0000FB6F894DEBF0FBECDBFDF91CF91FF9065
:1035C000EF90DF90CF90BF90AF909F908F907F90C3
:1035D0006F905F904F900895DF92EF92FF920F935C
:1035E0001F93CF93DF931F92CDB7DEB78C01790184
:1035F000FC01868DDD24D394D092C1018093E30138
:103600001092C2011092E40182E892E049830E9484
:1036100012140E948403F801868DD092C101809318
:10362000E3011092C2011092E4014981642F4132FA
:1036300008F060E20E94FB03109275018093740110
:10364000D12C9091740180917501981759F08701E0
:103650000D0D111D82E892E00E94C613F8018083CF
:10366000D394EFCF0F90DF91CF911F910F91FF90E7
:10367000EF90DF900C948403CF93DF9300D000D0C1
:10368000CDB7DEB71092E8011092E70188EE93E023
:10369000A0E0B0E08093E9019093EA01A093EB01F0
:1036A000B093EC012CE131E03093E6012093E50189
:1036B00025EC30E03093F2012093F10124EC30E06E
:1036C0003093F4012093F30120EC30E03093F601C5
:1036D0002093F50121EC30E03093F8012093F701BD
:1036E00022EC30E03093FA012093F90126EC30E02F
:1036F0003093FC012093FB011092FE011092FF0118
:10370000109200021092010210928502109284021F
:103710008093860290938702A0938802B0938902D7
:103720008CE291E0909383028093820210925D0379
:1037300010925C0388E491E090935B0380935A03BA
:1037400028E030E030935F0320935E0385E090E053
:10375000909361038093600330936303209362032B
:10376000909365038093640310926F031092670334
:1037700010926603109269031092680381E08093AF
:103780006E032FEF3FEF30936D0320936C03309364
:103790006B0320936A03809370031092710310925D
:1037A0007303109272031092750310927B031092B0
:1037B00082031092830310928403109285038093F6
:1037C000810380937E0310927F0392E090938003A5
:1037D0008093740388E790E0909379038093780353
:1037E0000E94ED2390937D0380937C03009761F00A
:1037F00028E7FC0111922A95E9F788E290E090937E
:1038000077038093760308C01092790310927803AF
:10381000109277031092760386E080937A0380916A
:103820007503882341F061E086E00E94701960E032
:1038300086E00E942419EAEBF0E0E491F0E0EE0F5C
:10384000FF1FE655FF4F85919491909387038093D6
:103850008603ECE9F0E0E491E093880380E691E0F0
:1038600090935B0380935A031092890388E08093BE
:103870008A0385E080938B0310928C0310928D0352
:1038800010928F0310928E031092940382E390E0C3
:10389000A0E0B0E08093B7029093B802A093B90281
:1038A000B093BA021092BB021092BC021092BD02F9
:1038B0001092BE0282E491E09093B6028093B5022A
:1038C00081E08093BF021092C00283EC9BEAA6E7DE
:1038D000BBE38093C1029093C202A093C302B09352
:1038E000C40288ED9BE6A6E7BBE38093C5029093F4
:1038F000C602A093C702B093C80282EF94EEA4E67A
:10390000BBE38093C9029093CA02A093CB02B09309
:10391000CC0280E090E0A0E8BFE38093D5029093D2
:10392000D602A093D702B093D8028093D902909385
:10393000DA02A093DB02B093DC028093DD02909365
:10394000DE02A093DF02B093E0021092E202109236
:10395000E1021092E4021092E3021092E602109249
:10396000E5028093E7029093E802A093E902B09306
:10397000EA028093EB029093EC02A093ED02B093E5
:10398000EE028093EF029093F002A093F102B093C5
:10399000F2028093240390932503A0932603B0930F
:1039A0002703109228031092290310922A031092E1
:1039B0002B0310922C0310922D0310922E031092C1
:1039C0002F031092300310923103109232031092A1
:1039D00033031092100310921103109212031092ED
:1039E00013031092140310921503109216031092F1
:1039F0001703109218031092190310921A031092D1
:103A00001B0380931C0390931D03A0931E03B0938C
:103A10001F038DEC9CECACE4BEE3809320039093F9
:103A20002103A0932203B093230310923403109236
:103A30003503109236031092370310923803109218
:103A4000390310923A0310923B0310923C031092F8
:103A50003D0310923E0310923F03109240031092D8
:103A600041031092420310924303109244031092B8
:103A7000450310924603109247038CE291E0A0E0C8
:103A8000B0E08093900290939102A0939202B09341
:103A90009302109294021092950210929602109244
:103AA00097028CE391E090938F0280938E028AE5D7
:103AB00093E0909399028093980285EB92E0909323
:103AC0009B0280939A0280E091E09093A102809300
:103AD000A00287E090E09093A3028093A20210924C
:103AE000A9021092A8021092AB021092AA021092A0
:103AF000AD021092AC021092AF021092AE02109280
:103B0000B1021092B0021092B3021092B202209150
:103B1000620330916303032E000C440B550B2115F7
:103B200031054105510571F029833A834B835C834C
:103B30000E946D2529813A814B815C810E947B2501
:103B40009B01AC013093AD022093AC02E09198024E
:103B5000F091990222853385032E000C440B550BFE
:103B6000211531054105510571F029833A834B83B5
:103B70005C830E946D2529813A814B815C810E9482
:103B80007B259B01AC013093AF022093AE021092D3
:103B9000A5021092A4028EE892E00F900F900F9071
:103BA0000F90DF91CF910C94EA0C789484B58260E9
:103BB00084BD84B5816084BD85B5826085BD85B5D1
:103BC000816085BD80916E00816080936E0010924F
:103BD00081008091810082608093810080918100CA
:103BE000816080938100809180008160809380005B
:103BF0008091B10084608093B1008091B0008160B9
:103C00008093B00080917A00846080937A008091E4
:103C10007A00826080937A0080917A00816080933C
:103C20007A0080917A00806880937A001092C100B7
:103C3000E091F501F091F60182E08083E091F101DD
:103C4000F091F2011082E091F301F091F4018FEC18
:103C500080831092FD01E091F901F091FA0186E074
:103C60008083E091F701F091F80180818061808389
:103C7000E091F701F091F801808188608083E09104
:103C8000F701F091F801808180688083E091F7016D
:103C9000F091F80180818F7D8083109275011092E0
:103CA00074011092C2011092E4011092C00181E0EF
:103CB0008093BF0110929A0161E082E10E94241971
:103CC00061E083E10E9424198091B9008E7F809386
:103CD000B9008091B9008D7F8093B90088E480930A
:103CE000B80085E48093BC0080917A0387FD08C00A
:103CF00061E00E94701960E080917A030E942419AB
:103D000081E08093750360917B03613421F1209100
:103D10007C0330917D03615031F070E08FEF90E4CF
:103D20000E94812002C060E070E0F90140917803B8
:103D300050917903CF01821B930B8417950740F4B0
:103D40004081469FC001479F900D11249193EECF73
:103D500081E480937B0360E070E08AE593E00E9459
:103D6000D31680E480937C0080917A0080648093F5
:103D70007A0080917A0086FDFCCF60917800809176
:103D8000790070E0782B072E000C880B990B6115D9
:103D900071058105910511F00E94722565E070E0C2
:103DA00080E090E00E94D11965E070E080E090E052
:103DB0000E94D1194498459883E590E09093D402ED
:103DC0008093D30281E08093C10183E58093E30176
:103DD0001092C2011092E4016DE282E892E00E942A
:103DE000121468E082E892E00E9412140E94840398
:103DF00088E68093F30260E085E10E94E10324EF0E
:103E000032E041E066E185ED92E00E94EC1A6091BB
:103E1000F402686186E10E94E10324EF32E041E0B0
:103E200066E185ED92E00E94EC1A6091F402687FF1
:103E300086E10E94E10324EF32E041E06EE385ED8C
:103E400092E00E94EC1A6091F402687F61608EE358
:103E50000E94E10324EF32E041E067E185ED92E06A
:103E60000E94EC1A6091F402646087E10E94E10311
:103E700024EF32E041E067E185ED92E00E94EC1A28
:103E80006091F402616087E10E94E10366E470E002
:103E900080E090E00E94D11968EE73E080E090E04D
:103EA0000E94D119C1E8D0E0C12CD12C7601460185
:103EB000570126013701219709F451C065E070E0F0
:103EC00080E090E00E94D11924EF32E046E06DE1FD
:103ED00085ED92E00E94EC1A6091F40270E0762F7A
:103EE00066278091F502682B0091F60210E0102FF2
:103EF00000278091F702082B2090F802312C322CF9
:103F000022248091F902282A072E000C880B990B95
:103F10000E943D229B01AC01C301B2010E94B0206E
:103F20002B013C01B801110F880B990B0E943D2217
:103F30009B01AC01C501B4010E94B0204B015C01A2
:103F4000B101330C880B990B0E943D229B01AC01FF
:103F5000C701B6010E94B0206B017C01ACCFC30148
:103F6000B201905820E030E040E05CE30E94212361
:103F70000E9405227093E2026093E102C501B40140
:103F8000905820E030E040E05CE30E9421230E9452
:103F900005227093E4026093E302C701B6019058D2
:103FA00020E030E040E05CE30E9421230E940522F3
:103FB0007093E6026093E50265E070E080E090E0D7
:103FC0000E94D1192FB7F8948091760190917701D2
:103FD000A0917801B09179012FBF4091BB0250911F
:103FE000BC026091BD027091BE028C019D01041B58
:103FF000150B260B370B4091B7025091B802609118
:10400000B9027091BA02041715072607370790F016
:104010008093BB029093BC02A093BD02B093BE02FA
:10402000E091B502F091B6020190F081E02D85EBB0
:1040300092E009952FB7F8948091760190917701DD
:10404000A0917801B09179012FBF409194025091D5
:10405000950260919602709197028C019D01041B5C
:10406000150B260B370B40919002509191026091F5
:10407000920270919302041715072607370790F0F4
:104080008093940290939502A0939602B093970226
:10409000E0918E02F0918F020190F081E02D8EE888
:1040A00092E009950E9461168DCF8CE391E0909388
:1040B0008F0280938E028091A8029091A9020097AE
:1040C00051F0FC01248135813093A9022093A8028C
:1040D0000E948224F0CF80E691E090935B0380936E
:1040E0005A0380917C0390917D03009711F00E9408
:1040F000822480917A0387FD03C060E00C947019DC
:104100000895AA1BBB1B51E107C0AA1FBB1FA6171E
:10411000B70710F0A61BB70B881F991F5A95A9F770
:1041200080959095BC01CD01089597FB072E16F45C
:10413000009407D077FD09D00E94812007FC05D0AC
:104140003EF4909581959F4F0895709561957F4FAE
:104150000895EE0FFF1F0590F491E02D099450583B
:10416000BB27AA270E94C7200C94DA220E94CC22E7
:1041700038F00E94D32220F039F49F3F19F426F43E
:104180000C94A2220EF4E095E7FB0C949C22E92FFC
:104190000E94EB2258F3BA1762077307840795074A
:1041A00020F079F4A6F50C940D230EF4E0950B2E77
:1041B000BA2FA02D0B01B90190010C01CA01A00179
:1041C0001124FF27591B99F0593F50F4503E68F1D4
:1041D0001A16F040A22F232F342F4427585FF3CF15
:1041E000469537952795A795F0405395C9F77EF4E6
:1041F0001F16BA0B620B730B840BBAF09150A1F02F
:10420000FF0FBB1F661F771F881FC2F70EC0BA0FB4
:10421000621F731F841F48F4879577956795B7953C
:10422000F7959E3F08F0B0CF9395880F08F0992737
:10423000EE0F9795879508950E94CC2260F080E854
:1042400091E009F49EEF0E94D32228F040E851E06B
:1042500071F45EEF0CC00C94A2220C940D23E92F94
:10426000E0780E94EB2240F3092E052AB1F32617CD
:1042700037074807590738F00E2E07F8E02569F090
:10428000E025E0640AC0EF6307F8009407FADB0159
:10429000B9019D01DC01CA01AD01EF930E94AA2181
:1042A0000E94DA220E945F215F91552339F02BEDA5
:1042B0003FE049E450FD49EC0C94B0200895DF93B1
:1042C000DD27B92FBF7740E85FE3161617064807CA
:1042D0005B0718F4D92F0E9419239F938F937F9324
:1042E0006F930E94D423E8E6F0E00E94A5220E948A
:1042F000DA222F913F914F915F910E943423DD2369
:1043000051F09058A2EA2AED3FE049EC5FE3D07803
:104310005D270E94C720DF910C94DA220E94782248
:1043200008F481E008950E94A7210C94DA220E94EB
:10433000D32258F00E94CC2240F029F45F3F29F0AC
:104340000C949C2251110C940E230C94A2220E94D6
:10435000EB2268F39923B1F3552391F3951B550B89
:10436000BB27AA2762177307840738F09F5F5F4F48
:10437000220F331F441FAA1FA9F335D00E2E3AF087
:10438000E0E832D091505040E695001CCAF72BD09F
:10439000FE2F29D0660F771F881FBB1F26173707F0
:1043A0004807AB07B0E809F0BB0B802DBF01FF2722
:1043B00093585F4F3AF09E3F510578F00C949C2241
:1043C0000C940E235F3FE4F3983ED4F386957795E3
:1043D0006795B795F7959F5FC9F7880F911D9695DB
:1043E000879597F90895E1E0660F771F881FBB1F37
:1043F000621773078407BA0720F0621B730B840BE4
:10440000BA0BEE1F88F7E09508950E940C2268947D
:10441000B1110C940E2308950E94F32288F09F5747
:1044200098F0B92F9927B751B0F0E1F0660F771FD8
:10443000881F991F1AF0BA95C9F714C0B13091F0CE
:104440000E940D23B1E008950C940D23672F782F5F
:104450008827B85F39F0B93FCCF386957795679593
:10446000B395D9F73EF490958095709561957F4FFF
:104470008F4F9F4F0895E89409C097FB3EF49095A5
:104480008095709561957F4F8F4F9F4F9923A9F02D
:10449000F92F96E9BB279395F695879577956795BC
:1044A000B795F111F8CFFAF4BB0F11F460FF1BC000
:1044B0006F5F7F4F8F4F9F4F16C0882311F096E993
:1044C00011C0772321F09EE8872F762F05C0662341
:1044D00071F096E8862F70E060E02AF09A95660FFA
:1044E000771F881FDAF7880F9695879597F90895B3
:1044F000990F0008550FAA0BE0E8FEEF16161706F5
:10450000E807F907C0F012161306E407F50798F05C
:10451000621B730B840B950B39F40A2661F0232B75
:10452000242B252B21F408950A2609F4A140A695F1
:104530008FEF811D811D089597F99F6780E870E0D6
:1045400060E008959FEF80EC0895DF93CF931F9371
:104550000F93FF92EF92DF927B018C01689406C06B
:10456000DA2EEF010E943423FE01E894A5912591F3
:10457000359145915591A6F3EF010E94C720FE01A8
:104580009701A801DA9469F7DF90EF90FF900F91FF
:104590001F91CF91DF91089500240A9416161706F3
:1045A00018060906089500240A9412161306140624
:1045B00005060895092E0394000C11F4882352F087
:1045C000BB0F40F4BF2B11F460FF04C06F5F7F4F3F
:1045D0008F4F9F4F089557FD9058440F551F59F026
:1045E0005F3F71F04795880F97FB991F61F09F3FE0
:1045F00079F087950895121613061406551FF2CF09
:104600004695F1DF08C0161617061806991FF1CF58
:1046100086957105610508940895E894BB2766277F
:104620007727CB0197F908950E94782208F48FEF3D
:1046300008959B01AC0160E070E080E89FE30C947A
:1046400093210E9434230C94DA220E94CC2238F069
:104650000E94D32220F0952311F00C949C220C94FC
:10466000A22211240C940E230E94EB2270F3959F3A
:10467000C1F3950F50E0551F629FF001729FBB2759
:10468000F00DB11D639FAA27F00DB11DAA1F649FF5
:104690006627B00DA11D661F829F2227B00DA11DA8
:1046A000621F739FB00DA11D621F839FA00D611D2E
:1046B000221F749F3327A00D611D231F849F600D4F
:1046C000211D822F762F6A2F11249F5750409AF078
:1046D000F1F088234AF0EE0FFF1FBB1F661F771F04
:1046E000881F91505040A9F79E3F510580F00C94CF
:1046F0009C220C940E235F3FE4F3983ED4F38695FE
:1047000077956795B795F795E7959F5FC1F7FE2B6E
:10471000880F911D9695879597F9089519F416F4C9
:104720000C94A2220C94D8230E94F322B8F399236C
:10473000C9F3B6F39F57550B87FF0E94E623002469
:10474000A0E640EA900180585695979528F4805C41
:10475000660F771F881F20F026173707480730F4A9
:10476000621B730B840B202931294A2BA6951794C1
:104770000794202531254A2758F7660F771F881F91
:1047800020F026173707480730F4620B730B840BB1
:10479000200D311D411DA09581F7B901842F91583D
:1047A000880F9695879508959B01AC010C94212361
:1047B0009F3F31F0915020F4879577956795B79595
:1047C000880F911D9695879597F9089591505040BF
:1047D000660F771F881FD2F70895CF93DF9382303B
:1047E000910510F482E090E0E091E303F091E4039E
:1047F00020E030E0C0E0D0E0309711F140815181FD
:1048000048175907C0F04817590761F4828193810E
:10481000209719F09B838A832BC09093E4038093A5
:10482000E30326C02115310519F04217530718F488
:104830009A01BE01DF01EF010280F381E02DDCCFA0
:104840002115310509F1281B390B2430310590F46D
:1048500012968D919C9113976115710521F0FB01C2
:104860009383828304C09093E4038093E303FD0168
:10487000329644C0FD01E20FF31F819391932250C1
:1048800031092D933C933AC02091E1033091E2032A
:10489000232B41F420911001309111013093E20358
:1048A0002093E10320910E0130910F012115310574
:1048B00041F42DB73EB74091120150911301241BD2
:1048C000350BE091E103F091E203E217F307A0F466
:1048D0002E1B3F0B2817390778F0AC014E5F5F4F56
:1048E0002417350748F04E0F5F1F5093E2034093A3
:1048F000E1038193919302C0E0E0F0E0CF01DF910A
:10490000CF9108950F931F93CF93DF93009709F4EE
:104910008CC0FC013297138212820091E303109144
:10492000E4030115110581F420813181820F931F69
:104930002091E1033091E2032817390779F5F093CC
:10494000E203E093E10371C0D80140E050E0AE170C
:10495000BF0750F412962D913C911397AD0121158C
:10496000310509F1D901F3CF9D01DA0133832283A7
:1049700060817181860F971F8217930769F4EC019C
:1049800028813981260F371F2E5F3F4F31832083C7
:104990008A819B8193838283452B29F4F093E403DE
:1049A000E093E30342C01396FC93EE931297ED015C
:1049B000499159919E01240F351FE217F30771F4B5
:1049C00080819181840F951F029611969C938E93FE
:1049D0008281938113969C938E931297E0E0F0E08E
:1049E000D80112968D919C911397009719F0F801B8
:1049F0008C01F6CF8D919C9198012E5F3F4F820FD5
:104A0000931F2091E1033091E2032817390769F4DD
:104A1000309729F41092E4031092E30302C013824A
:104A200012821093E2030093E103DF91CF911F9173
:104A30000F91089581E090E0F8940C94DE258F9218
:104A40009F92AF92BF92CF92DF92EF92FF92CF935D
:104A5000DF93EC01688179818A819B816115710501
:104A60008105910521F464E279ED8BE597E02DE174
:104A700033EF41E050E00E947B2549015A019B0140
:104A8000AC01A7EAB1E40E949A256B017C01ACEE6F
:104A9000B4EFA50194010E94A825DC01CB018C0D87
:104AA0009D1DAE1DBF1DB7FF03C00197A109B048F2
:104AB00088839983AA83BB83BC01CD019F77DF9153
:104AC000CF91FF90EF90DF90CF90BF90AF909F90ED
:104AD0008F9008950E941F25089584E191E00E941F
:104AE0001F2508956093140170931501809316019A
:104AF000909317010895052E97FB1EF400940E94D1
:104B0000922557FD07D00E94AD2507FC03D04EF437
:104B10000C94922550954095309521953F4F4F4FDD
:104B20005F4F089590958095709561957F4F8F4F59
:104B30009F4F08950E94CF25A59F900DB49F900D83
:104B4000A49F800D911D11240895B7FF0C949A2500
:104B50000E949A25821B930B0895A1E21A2EAA1B8C
:104B6000BB1BFD010DC0AA1FBB1FEE1FFF1FA2171D
:104B7000B307E407F50720F0A21BB30BE40BF50B1A
:104B8000661F771F881F991F1A9469F760957095A3
:104B9000809590959B01AC01BD01CF010895A29F26
:104BA000B001B39FC001A39F700D811D1124911D01
:104BB000B29F700D811D1124911D089513E0C4E270
:104BC000D3E004C0FE010E94A9202196C532D1077E
:064BD000C9F7F894FFCFC5
:104BD60000F800FCE0FFE0071F001F801FF8000040
:104BE600E50380000100000000000000BB184F0331
:104BF6005516331647160219000000001214E21368
:104C0600DA13C613B713B61300000000370D000001
:104C16000000A1040000000034114F03D116DA127F
:104C260074125E128B1229120B128D0F00000000F7
:104C360034114F031517DA1274125E128B122912F1
:044C4600D3168D0FE5
:00000001FF
